:020000040800F2
:10000000005000206D7F00081D7E0008297E00083A
:100010002F7E0008357E00083B7E000800000000AF
:10002000000000000000000000000000417E000809
:100030004D7E000800000000597E0008B57F0008D2
:10004000B57F0008B57F0008B57F0008B57F0008C0
:10005000B57F0008B57F0008B57F0008B57F0008B0
:10006000B57F0008B57F0008B57F0008B57F0008A0
:10007000B57F0008B57F0008B57F0008B57F000890
:10008000B57F0008B57F0008B57F0008B57F000880
:10009000B57F0008B57F0008B57F0008B57F000870
:1000A000B57F0008657E0008B57F0008B57F0008B1
:1000B000B57F0008B57F0008B57F0008797E00088D
:1000C0008D7E0008B57F0008B57F0008B57F000869
:1000D000B57F0008B57F0008B57F0008B57F000830
:1000E000B57F0008B57F0008B57F0008000000005C
:1000F0000000000000000000000000000000000000
:0C01000000000000000000005FF808F1A3
:1001100010B5054C237833B9044B13B10448AFF341
:1001200000800123237010BD0002002000000000A9
:100130007CC0000808B5034B1BB103490348AFF36B
:10014000008008BD00000000040200207CC0000800
:1001500081F0004102E000BF83F0004330B54FEA78
:1001600041044FEA430594EA050F08BF90EA020FE5
:100170001FBF54EA000C55EA020C7FEA645C7FEA78
:10018000655C00F0E2804FEA5454D4EB5555B8BF9B
:100190006D420CDD2C4480EA020281EA030382EA0C
:1001A000000083EA010180EA020281EA0303362D9E
:1001B00088BF30BD11F0004F4FEA01314FF4801C71
:1001C0004CEA113102D0404261EB410113F0004F83
:1001D0004FEA03334CEA133302D0524263EB43033A
:1001E00094EA050F00F0A780A4F10104D5F1200ED8
:1001F0000DDB02FA0EFC22FA05F2801841F1000133
:1002000003FA0EF2801843FA05F359410EE0A5F106
:1002100020050EF1200E012A03FA0EFC28BF4CF037
:10022000020C43FA05F3C01851EBE37101F00045ED
:1002300007D54FF0000EDCF1000C7EEB00006EEBFA
:100240000101B1F5801F1BD3B1F5001F0CD3490884
:100250005FEA30004FEA3C0C04F101044FEA4452DB
:1002600012F5800F80F09A80BCF1004F08BF5FEA62
:10027000500C50F1000041EB045141EA050130BD42
:100280005FEA4C0C404141EB010111F4801FA4F1E5
:100290000104E9D191F0000F04BF01460020B1FA3A
:1002A00081F308BF2033A3F10B03B3F120020CDA72
:1002B0000C3208DD02F1140CC2F10C0201FA0CF050
:1002C00021FA02F10CE002F11402D8BFC2F1200CB5
:1002D00001FA02F120FA0CFCDCBF41EA0C0190406B
:1002E000E41AA2BF01EB0451294330BD6FEA0404B4
:1002F0001F3C1CDA0C340EDC04F11404C4F120029F
:1003000020FA04F001FA02F340EA030021FA04F3B0
:1003100045EA030130BDC4F10C04C4F1200220FA07
:1003200002F001FA04F340EA0300294630BD21FA45
:1003300004F0294630BD94F0000F83F4801306BF0B
:1003400081F480110134013D4EE77FEA645C18BFFF
:100350007FEA655C29D094EA050F08BF90EA020F96
:1003600005D054EA000C04BF1946104630BD91EA8E
:10037000030F1EBF0021002030BD5FEA545C05D191
:100380004000494128BF41F0004130BD14F58004D0
:100390003CBF01F5801130BD01F0004545F0FE4144
:1003A00041F470014FF0000030BD7FEA645C1ABF79
:1003B000194610467FEA655C1CBF0B46024650EAB0
:1003C000013406BF52EA033591EA030F41F40021DC
:1003D00030BD00BF90F0000F04BF0021704730B562
:1003E0004FF4806404F132044FF000054FF0000137
:1003F00050E700BF90F0000F04BF0021704730B5F8
:100400004FF4806404F1320410F0004548BF4042CC
:100410004FF000013EE700BF42004FEAE2014FEA21
:1004200031014FEA02701FBF12F07F4393F07F4FFC
:1004300081F06051704732F07F4208BF704793F0FF
:100440007F4F04BF41F40021704730B54FF4607412
:1004500001F0004521F000411CE700BF50EA010215
:1004600008BF704730B54FF000050AE050EA0102BE
:1004700008BF704730B511F0004502D5404261EB2E
:1004800041014FF4806404F132045FEA915C3FF46F
:10049000D8AE4FF003025FEADC0C18BF03325FEA0C
:1004A000DC0C18BF033202EBDC02C2F1200300FABD
:1004B00003FC20FA02F001FA03FE40EA0E0021FAE2
:1004C00002F11444BDE600BF70B54FF0FF0C4CF4D0
:1004D000E06C1CEA11541DBF1CEA135594EA0C0F82
:1004E00095EA0C0F00F0DEF82C4481EA030621EABD
:1004F0004C5123EA4C5350EA013518BF52EA0335F8
:1005000041F4801143F4801338D0A0FB02CE4FF0A9
:100510000005E1FB02E506F00042E0FB03E54FF0D9
:100520000006E1FB03569CF0000F18BF4EF0010ED1
:10053000A4F1FF04B6F5007F64F5407404D25FEACD
:100540004E0E6D4146EB060642EAC62141EA555180
:100550004FEAC52040EA5E504FEACE2EB4F1FD0CC2
:1005600088BFBCF5E06F1ED8BEF1004F08BF5FEA40
:10057000500E50F1000041EB045170BD06F00046F2
:1005800046EA010140EA020081EA0301B4EB5C049F
:10059000C2BFD4EB0C0541EA045170BD41F4801197
:1005A0004FF0000E013C00F3AB8014F1360FDEBFBC
:1005B000002001F0004170BDC4F10004203C35DA98
:1005C0000C341BDC04F11404C4F1200500FA05F31B
:1005D00020FA04F001FA05F240EA020001F00042BC
:1005E00021F0004110EBD37021FA04F642EB060132
:1005F0005EEA430E08BF20EAD37070BDC4F10C045C
:10060000C4F1200500FA04F320FA05F001FA04F21F
:1006100040EA020001F0004110EBD37041F100010B
:100620005EEA430E08BF20EAD37070BDC4F1200516
:1006300000FA05F24EEA020E20FA04F301FA05F27E
:1006400043EA020321FA04F001F0004121FA04F226
:1006500020EA020000EBD3705EEA430E08BF20EAF6
:10066000D37070BD94F0000F0FD101F00046400030
:1006700041EB010111F4801F08BF013CF7D041EAB2
:10068000060195F0000F18BF704703F000465200B6
:1006900043EB030313F4801F08BF013DF7D043EA87
:1006A0000603704794EA0C0F0CEA135518BF95EA3D
:1006B0000C0F0CD050EA410618BF52EA4306D1D1C4
:1006C00081EA030101F000414FF0000070BD50EAE3
:1006D000410606BF1046194652EA430619D094EA6D
:1006E0000C0F02D150EA013613D195EA0C0F05D157
:1006F00052EA03361CBF104619460AD181EA0301AB
:1007000001F0004141F0FE4141F470014FF0000062
:1007100070BD41F0FE4141F4780170BD70B54FF0FD
:10072000FF0C4CF4E06C1CEA11541DBF1CEA13557D
:1007300094EA0C0F95EA0C0F00F0A7F8A4EB05045F
:1007400081EA030E52EA03354FEA013100F0888056
:100750004FEA03334FF0805545EA131343EA12631F
:100760004FEA022245EA111545EA10654FEA0026D4
:100770000EF000419D4208BF964244F1FD0404F58D
:10078000407402D25B084FEA3202B61A65EB0305E9
:100790005B084FEA32024FF480104FF4002CB6EBA6
:1007A000020E75EB030E22BFB61A754640EA0C0026
:1007B0005B084FEA3202B6EB020E75EB030E22BF66
:1007C000B61A754640EA5C005B084FEA3202B6EBA7
:1007D000020E75EB030E22BFB61A754640EA9C0066
:1007E0005B084FEA3202B6EB020E75EB030E22BF36
:1007F000B61A754640EADC0055EA060E18D04FEAF4
:10080000051545EA16754FEA06164FEAC30343EA93
:1008100052734FEAC2025FEA1C1CC0D111F4801F60
:100820000BD141EA00014FF000004FF0004CB6E759
:1008300011F4801F04BF01430020B4F1FD0C88BFF8
:10084000BCF5E06F3FF6AFAEB5EB030C04BFB6EB03
:10085000020C5FEA500C50F1000041EB045170BDF6
:100860000EF0004E4EEA113114EB5C04C2BFD4EB23
:100870000C0541EA045170BD41F480114FF0000EA7
:10088000013C90E645EA060E8DE60CEA135594EA23
:100890000C0F08BF95EA0C0F3FF43BAF94EA0C0F26
:1008A0000AD150EA01347FF434AF95EA0C0F7FF49B
:1008B00025AF104619462CE795EA0C0F06D152EAEF
:1008C00003353FF4FDAE1046194622E750EA4106D3
:1008D00018BF52EA43067FF4C5AE50EA41047FF4E4
:1008E0000DAF52EA43057FF4EBAE12E74FF0FF3C49
:1008F00006E000BF4FF0010C02E000BF4FF0010C1A
:100900004DF804CD4FEA410C7FEA6C5C4FEA430C92
:1009100018BF7FEA6C5C1BD001B050EA410C0CBFE1
:1009200052EA430C91EA030F02BF90EA020F002043
:10093000704710F1000F91EA030F58BF994208BFAA
:1009400090422CBFD8176FEAE37040F00100704767
:100950004FEA410C7FEA6C5C02D150EA013C07D1BE
:100960004FEA430C7FEA6C5CD6D152EA033CD3D009
:100970005DF8040B704700BF8446104662468C4603
:100980001946634600E000BF01B5FFF7B7FF002836
:1009900048BF10F1000F01BD4DF808EDFFF7F4FF5F
:1009A0000CBF012000205DF808FB00BF4DF808EDEA
:1009B000FFF7EAFF34BF012000205DF808FB00BF0D
:1009C0004DF808EDFFF7E0FF94BF012000205DF82F
:1009D00008FB00BF4DF808EDFFF7CEFF94BF0120E4
:1009E00000205DF808FB00BF4DF808EDFFF7C4FFDD
:1009F00034BF012000205DF808FB00BF4FEA410C26
:100A00007FEA6C5C02D150EA013C0AD14FEA430C08
:100A10007FEA6C5C02D152EA033C02D14FF0000045
:100A200070474FF0010070474FEA410212F5001283
:100A300015D211D56FF47873B3EB625212D94FEA25
:100A4000C12343F0004343EA505311F0004F23FA0F
:100A500002F018BF404270474FF00000704750EA64
:100A6000013005D111F0004008BF6FF00040704721
:100A70004FF00000704700BF4FEA4102B2F1E0437F
:100A800024BFB3F5001CDCF1FE5C0DD901F0004C75
:100A90004FEAC0024CEA5070B2F1004F40EB8300C5
:100AA00008BF20F00100704711F0804F21D113F1F1
:100AB0003872BCBF01F00040704741F480114FEA2A
:100AC0005252C2F11802C2F1200C10FA0CF320FAB3
:100AD00002F018BF40F001004FEAC1234FEAD323D0
:100AE00003FA0CFC40EA0C0023FA02F34FEA43033A
:100AF000CCE77FEA625307D150EA01331EBF4FF0C3
:100B0000FE4040F44000704701F0004040F0FE40DD
:100B100040F40000704700BF80F0004002E000BFDA
:100B200081F0004142001FBF5FEA410392EA030FD8
:100B30007FEA226C7FEA236C6AD04FEA1262D2EB22
:100B40001363C1BFD218414048404140B8BF5B4227
:100B5000192B88BF704710F0004F40F4000020F0C0
:100B60007F4018BF404211F0004F41F4000121F0D6
:100B70007F4118BF494292EA030F3FD0A2F1010220
:100B800041FA03FC10EB0C00C3F1200301FA03F15E
:100B900000F0004302D5494260EB4000B0F5000F81
:100BA00013D3B0F1807F06D340084FEA310102F140
:100BB0000102FE2A51D2B1F1004F40EBC25008BFF2
:100BC00020F0010040EA03007047490040EB0000BC
:100BD00010F4000FA2F10102EDD1B0FA80FCACF1EB
:100BE000080CB2EB0C0200FA0CF0AABF00EBC250EA
:100BF00052421843BCBFD0401843704792F0000FD8
:100C000081F4000106BF80F400000132013BB5E72A
:100C10004FEA41037FEA226C18BF7FEA236C21D0A0
:100C200092EA030F04D092F0000F08BF0846704705
:100C300090EA010F1CBF0020704712F07F4F04D1D3
:100C4000400028BF40F00040704712F100723CBFE6
:100C500000F50000704700F0004343F0FE4040F410
:100C6000000070477FEA226216BF08467FEA2363CE
:100C70000146420206BF5FEA412390EA010F40F4B9
:100C8000800070474FF0000304E000BF10F0004305
:100C900048BF40425FEA000C08BF704743F09643EC
:100CA00001464FF000001CE050EA010208BF704707
:100CB0004FF000030AE000BF50EA010208BF70478E
:100CC00011F0004302D5404261EB41015FEA010CA3
:100CD00002BF84460146002043F0B64308BFA3F19B
:100CE0008053A3F50003BCFA8CF2083AA3EBC2537D
:100CF00010DB01FA02FC634400FA02FCC2F120029C
:100D0000BCF1004F20FA02F243EB020008BF20F0D2
:100D10000100704702F1200201FA02FCC2F1200238
:100D200050EA4C0021FA02F243EB020008BF20EA2D
:100D3000DC7070474FF0FF0C1CEAD0521EBF1CEA5B
:100D4000D15392EA0C0F93EA0C0F6FD01A4480EA49
:100D5000010C400218BF5FEA41211ED04FF0006332
:100D600043EA501043EA5111A0FB01310CF000405E
:100D7000B1F5000F3EBF490041EAD3715B0040EA84
:100D8000010062F17F02FD2A1DD8B3F1004F40EB54
:100D9000C25008BF20F00100704790F0000F0CF027
:100DA000004C08BF49024CEA502040EA51207F3AEB
:100DB000C2BFD2F1FF0340EAC250704740F40000C6
:100DC0004FF00003013A5DDC12F1190FDCBF00F0B7
:100DD00000407047C2F10002410021FA02F1C2F165
:100DE000200200FA02FC5FEA310040F1000053EA01
:100DF0004C0308BF20EADC70704792F0000F00F04F
:100E0000004C02BF400010F4000F013AF9D040EA54
:100E10000C0093F0000F01F0004C02BF490011F4E8
:100E2000000F013BF9D041EA0C018FE70CEAD153E6
:100E300092EA0C0F18BF93EA0C0F0AD030F0004C66
:100E400018BF31F0004CD8D180EA010000F000401A
:100E5000704790F0000F17BF90F0004F084691F0D8
:100E6000000F91F0004F14D092EA0C0F01D1420212
:100E70000FD193EA0C0F03D14B0218BF084608D1DB
:100E800080EA010000F0004040F0FE4040F4000025
:100E9000704740F0FE4040F4400070474FF0FF0CB8
:100EA0001CEAD0521EBF1CEAD15392EA0C0F93EAFF
:100EB0000C0F69D0A2EB030280EA010C49024FEA51
:100EC000402037D04FF0805343EA111143EA10130A
:100ED0000CF000408B4238BF5B0042F17D024FF4C2
:100EE000000C8B4224BF5B1A40EA0C00B3EB510F9D
:100EF00024BFA3EB510340EA5C00B3EB910F24BF86
:100F0000A3EB910340EA9C00B3EBD10F24BFA3EB0A
:100F1000D10340EADC001B0118BF5FEA1C1CE0D1D2
:100F2000FD2A3FF650AF8B4240EBC25008BF20F085
:100F3000010070470CF0004C4CEA50207F32C2BFD9
:100F4000D2F1FF0340EAC250704740F400004FF076
:100F50000003013A37E792F0000F00F0004C02BFA7
:100F6000400010F4000F013AF9D040EA0C0093F071
:100F7000000F01F0004C02BF490011F4000F013BCB
:100F8000F9D041EA0C0195E70CEAD15392EA0C0F33
:100F900008D142027FF47DAF93EA0C0F7FF470AF6B
:100FA000084676E793EA0C0F04D14B023FF44CAFAE
:100FB00008466EE730F0004C18BF31F0004CCAD143
:100FC00030F000427FF45CAF31F000437FF43CAF7F
:100FD0005FE700BF4FF0FF3C06E000BF4FF0010CA1
:100FE00002E000BF4FF0010C4DF804CD4FEA400283
:100FF0004FEA41037FEA226C18BF7FEA236C11D0CD
:1010000001B052EA530C18BF90EA010F58BFB2EB7F
:10101000030088BFC81738BF6FEAE17018BF40F0FF
:10102000010070477FEA226C02D15FEA402C05D1B3
:101030007FEA236CE4D15FEA412CE1D05DF8040B38
:10104000704700BF844608466146FFE70FB5FFF7CB
:10105000C9FF002848BF10F1000F0FBD4DF808ED83
:10106000FFF7F4FF0CBF012000205DF808FB00BF74
:101070004DF808EDFFF7EAFF34BF012000205DF8CE
:1010800008FB00BF4DF808EDFFF7E0FF94BF01201B
:1010900000205DF808FB00BF4DF808EDFFF7D2FF18
:1010A00094BF012000205DF808FB00BF4DF808ED5B
:1010B000FFF7C8FF34BF012000205DF808FB00BF28
:1010C0004FEA4002B2F1FE4F0FD34FF09E03B3EB55
:1010D00012620DD94FEA002343F0004310F0004F95
:1010E00023FA02F018BF404270474FF000007047EB
:1010F00012F1610F01D1420205D110F0004008BF8A
:101100006FF0004070474FF000007047034613F83F
:10111000012B002AFBD1181A0138704780B500AFA7
:10112000084B1B68074A43F010031360032000F0CC
:10113000EFF8002006F01CFE06F04EFD00231846D6
:1011400080BD00BF0020024080B400AF054B1B787B
:101150001A46054B1B681344034A136000BFBD4683
:1011600080BC7047040000209C02002080B400AFC7
:10117000024B1B681846BD4680BC70479C0200208D
:1011800080B584B000AF7860FFF7F0FFB8607B688F
:10119000FB60FB68B3F1FF3F05D0094B1B781A4693
:1011A000FB681344FB6000BFFFF7E0FF0246BB682B
:1011B000D31AFA689A42F7D800BF1037BD4680BDEF
:1011C0000400002080B485B000AF78607B6803F035
:1011D0000703FB600C4BDB68BB60BA684FF6FF038C
:1011E0001340BB60FB681A02BB68134343F0BF6344
:1011F00043F40033BB60044ABB68D36000BF1437BC
:10120000BD4680BC704700BF00ED00E080B400AF79
:10121000044BDB681B0A03F007031846BD4680BC7D
:10122000704700BF00ED00E080B483B000AF03461C
:10123000FB71FB7903F01F02064997F907305B0940
:10124000012000FA02F241F8232000BF0C37BD460E
:1012500080BC704700E100E080B483B000AF03467B
:101260003960FB7197F90730002B0BDA3B68DAB273
:101270000C49FB7903F00F03043B1201D2B20B447B
:101280001A7609E03B68DAB2074997F9073012018C
:10129000D2B20B4483F8002300BF0C37BD4680BC9C
:1012A000704700BF00ED00E000E100E080B489B0CD
:1012B00000AFF860B9607A60FB6803F00703FB6178
:1012C000FB69C3F10703042B28BF0423BB61FB693F
:1012D0000433062B02D9FB69033B00E000237B614A
:1012E0004FF0FF32BB6902FA03F3DA43BB681A40DE
:1012F0007B699A404FF0FF317B6901FA03F3D943D0
:101300007B680B40134318462437BD4680BC7047AA
:1013100080B582B000AF78607868FFF753FF00BFF8
:101320000837BD4680BD80B586B000AF0346B960C2
:101330007A60FB7300237B61FFF768FF78617A684E
:10134000B9687869FFF7B2FF024697F90F30114686
:101350001846FFF781FF00BF1837BD4680BD80B536
:1013600082B000AF0346FB7197F907301846FFF7CC
:101370005BFF00BF0837BD4680BD000080B584B06C
:1013800000AF78600023FB737B6893F82130022B59
:1013900005D07B6804229A630123FB7351E07B68CC
:1013A0001B681A687B681B6822F00E021A607B6853
:1013B0001B681A687B681B6822F001021A607B6850
:1013C0001B68224A934229D07B681B68204A9342BB
:1013D00022D07B681B681F4A93421AD07B681B6827
:1013E0001D4A934212D07B681B681C4A93420AD064
:1013F0007B681B681A4A934202D14FF480130EE0B7
:101400004FF080730BE04FF4803308E04FF48053CB
:1014100005E04FF4807302E0102300E00123114A3D
:1014200053607B68012283F821207B68002283F8C7
:1014300020207B685B6B002B03D07B685B6B78683C
:101440009847FB7B18461037BD4680BD0800024018
:101450001C0002403000024044000240580002409C
:101460006C0002400000024080B48BB000AF786096
:1014700039600023FB610023BB6100237B610023F3
:101480003B6200233B6100237B6227E101227B6AF0
:1014900002FA03F3FB613B681B68FA691340BB6106
:1014A000BA69FB699A4240F016813B685B68122B6F
:1014B00034D0122B0DD8022B2BD0022B04D8002BAA
:1014C00031D0012B1CD048E0032B43D0112B1BD073
:1014D00043E0874A934226D0854A934206D8854AFC
:1014E000934220D0844A93421DD036E0834A9342EF
:1014F00019D0834A934216D0824A934213D02CE0EB
:101500003B68DB683B6228E03B68DB6804333B6296
:1015100023E03B68DB6808333B621EE03B68DB6826
:101520000C333B6219E03B689B68002B02D104231B
:101530003B6212E03B689B68012B05D108233B62AC
:101540007B68FA691A6108E008233B627B68FA69E4
:101550005A6102E000233B6200BFBB69FF2B01D848
:101560007B6801E07B680433FB60BB69FF2B02D81A
:101570007B6A9B0002E07B6A083B9B003B61FB6847
:101580001A680F213B6901FA03F3DB431A40396AF9
:101590003B6901FA03F31A43FB681A603B685B6816
:1015A00003F08053002B00F09680574B9B69564AFE
:1015B00043F001039361544B9B6903F00103BB604B
:1015C000BB68524A7B6A9B08023352F823307B6126
:1015D0007B6A03F003039B000F2202FA03F3DB4351
:1015E0007A6913407B617B68494A934213D07B68D8
:1015F000484A93420DD07B68474A934207D07B68A4
:10160000464A934201D1032306E0042304E0022367
:1016100002E0012300E000237A6A02F00302920054
:1016200093407A6913437B6138497B6A9B08023394
:101630007A6941F823203B685B6803F48033002B10
:1016400006D0374B1A683649BB6913430B6006E076
:10165000334B1A68BB69DB43314913400B603B686D
:101660005B6803F40033002B06D02D4B5A682C49DD
:10167000BB6913434B6006E0294B5A68BB69DB43E7
:10168000274913404B603B685B6803F48013002BD1
:1016900006D0234B9A682249BB6913438B6006E04E
:1016A0001F4B9A68BB69DB431D4913408B603B6845
:1016B0005B6803F40013002B06D0194BDA68184955
:1016C000BB691343CB6006E0154BDA68BB69DB43AB
:1016D00013491340CB607B6A01337B627B6A0F2B1B
:1016E0007FF6D4AE00BF2C37BD4680BC704700BF2C
:1016F0000000211000001110000012100000311035
:1017000000003210000022100010024000000140D2
:1017100000080140000C014000100140001401408D
:101720000004014080B584B000AF78600023FB6006
:101730000023BB607B68002B01D10123E7E07B68BD
:1017400093F83D30DBB2002B06D17B68002283F892
:101750003C20786806F072FA7B68242283F83D20EA
:101760007B681B681A687B681B6822F001021A609C
:1017700002F07EFEB8607B685B68674A934207D8D8
:10178000BB68664A934294BF01230023DBB206E0A4
:10179000BB68634A934294BF01230023DBB2002B52
:1017A00001D00123B3E0BB685E4AA2FB03239B0C7C
:1017B000FB607B681B68FA685A607B685B68564A06
:1017C000934202D8FB68013309E0FB684FF496723C
:1017D00002FB03F3544AA2FB03239B0901337A68FB
:1017E000126813627B685B684B4A93420DD8BB68F2
:1017F0005A1E7B685B685B00B2FBF3F30133C3F3F3
:101800000B03042B38BF04234FE07B689B68002B3D
:1018100011D1BB68591E7B685A6813465B0013449C
:10182000B1FBF3F30133C3F30B03002B0CBF012314
:101830000023DBB212E0BB68591E7B685A6813466E
:101840009B0013449A001344B1FBF3F30133C3F339
:101850000B03002B0CBF01230023DBB2002B01D0B4
:10186000012322E07B689B68002B0ED1BB68591EC8
:101870007B685A6813465B001344B1FBF3F30133F2
:10188000C3F30B0343F400430FE0BB68591E7B68AE
:101890005A6813469B0013449A001344B1FBF3F3B8
:1018A0000133C3F30B0343F440437A681268D361F6
:1018B0007B68D9697B681A6A7B681B680A431A606F
:1018C0007B6819697B68DA687B681B680A439A60E1
:1018D0007B6859697B689A697B681B680A43DA6090
:1018E0007B681B681A687B681B6842F001021A60FB
:1018F0007B6800221A647B68202283F83D207B6885
:1019000000221A637B68002283F83E2000231846D9
:101910001037BD4680BD00BFA08601007F841E0039
:10192000FF083D0083DE1B43D34D621080B588B0B5
:1019300002AFF8607A601A460B467B8113463B8102
:1019400000237B61FFF712FC7861FB6893F83D3060
:10195000DBB2202B40F0EE807B690093192301223B
:101960007749F86801F0FEFF0346002B01D00223FF
:10197000E1E0FB6893F83C30012B01D10223DAE06F
:10198000FB68012283F83C20FB681B681B6803F09E
:101990000103012B07D0FB681B681A68FB681B68F2
:1019A00042F001021A60FB681B681A68FB681B683A
:1019B00022F400621A60FB68212283F83D20FB6854
:1019C000102283F83E20FB6800221A64FB687A68C4
:1019D0005A62FB683A895A85FB685A4ADA62FB68A0
:1019E0005B8D9AB2FB681A8579897B693A6AF868D7
:1019F00001F006FE0346002B0FD0FB681B6C042B86
:101A000005D1FB68002283F83C20012393E0FB68AA
:101A1000002283F83C2003238DE000233B61FB6818
:101A20001B685B693B61FB681B689B693B613B69A9
:101A300066E07A69396AF86802F053F80346002BC9
:101A40000FD0FB681B6C042B09D1FB681B681A685C
:101A5000FB681B6842F400721A6001236BE00323E9
:101A600069E0FB685B6A591CFA6851621A78FB6886
:101A70001B681A61FB685B8D9BB2013B9AB2FB68E5
:101A80005A85FB681B8D013B9AB2FB681A85FB687F
:101A90001B685B6903F00403042B19D1FB681B8DE1
:101AA000002B15D0FB685B6A591CFA6851621A78E2
:101AB000FB681B681A61FB685B8D9BB2013B9AB2A5
:101AC000FB685A85FB681B8D013B9AB2FB681A853F
:101AD0007A69396AF86802F041F80346002B0FD0A2
:101AE000FB681B6C042B09D1FB681B681A68FB6838
:101AF0001B6842F400721A6001231CE003231AE001
:101B0000FB681B8D002B94D1FB681B681A68FB686F
:101B10001B6842F400721A60FB68202283F83D20A3
:101B2000FB68002283F83E20FB68002283F83C20FB
:101B3000002300E0022318461837BD4680BD00BFD1
:101B4000020010000000FFFF80B58CB002AFF8600B
:101B5000084611461A4603467B810B463B811346D5
:101B6000FB8000237B62FFF701FB7862FB6893F840
:101B70003D30DBB2202B40F022827B6A0093192398
:101B800001228A49F86801F0EDFE0346002B01D0DE
:101B9000022315E2FB6893F83C30012B01D10223AC
:101BA0000EE2FB68012283F83C20FB681B681B687F
:101BB00003F00103012B07D0FB681B681A68FB6860
:101BC0001B6842F001021A60FB681B681A68FB6818
:101BD0001B6822F400621A60FB68222283F83D2011
:101BE000FB68402283F83E20FB6800221A64FB68F1
:101BF0003A6B5A62FB68BA8E5A85FB686C4ADA62A5
:101C0000FB685B8D9AB2FB681A85F8883A897989F6
:101C10007B6A0193BB6B00930346F86801F072FD89
:101C20000346002B0FD0FB681B6C042B05D1FB680F
:101C3000002283F83C200123C2E1FB68002283F8E4
:101C40003C200323BCE1FB681B8D002B13D1002338
:101C50003B62FB681B685B693B62FB681B689B69B6
:101C60003B623B6AFB681B681A68FB681B6842F4AE
:101C700000721A6090E1FB681B8D012B1DD1FB687F
:101C80001B681A68FB681B6822F480621A6072B6CF
:101C90000023FB61FB681B685B69FB61FB681B68D9
:101CA0009B69FB61FB69FB681B681A68FB681B6822
:101CB00042F400721A6062B66EE1FB681B8D022B63
:101CC0001DD1FB681B681A68FB681B6842F4006240
:101CD0001A6072B60023BB61FB681B685B69BB615D
:101CE000FB681B689B69BB61BB69FB681B681A6862
:101CF000FB681B6822F480621A6062B64CE1FB68E4
:101D00001B681A68FB681B6842F480621A60002333
:101D10007B61FB681B685B697B61FB681B689B6977
:101D20007B617B6938E1FB681B8D032B00F2EF8040
:101D3000FB681B8D012B27D17A6AB96BF86801F01B
:101D40004AFF0346002B07D0FB681B6C202B01D1F8
:101D5000032335E1012333E1FB681B681869FB6845
:101D60005B6A591CFA685162C2B21A70FB681B8D1B
:101D7000013B9AB2FB681A85FB685B8D9BB2013B05
:101D80009AB2FB685A8507E1FB681B8D022B4CD188
:101D90007B6A0093BB6B00220649F86801F0E2FD04
:101DA0000346002B08D003230AE100BF0200100005
:101DB0000000FFFF0400010072B6FB681B681A6890
:101DC000FB681B6842F400721A60FB681B681869A4
:101DD000FB685B6A591CFA685162C2B21A70FB68F0
:101DE0001B8D013B9AB2FB681A85FB685B8D9BB229
:101DF000013B9AB2FB685A8562B6FB681B6818699A
:101E0000FB685B6A591CFA685162C2B21A70FB68BF
:101E10001B8D013B9AB2FB681A85FB685B8D9BB2F8
:101E2000013B9AB2FB685A85B6E07B6A0093BB6BB4
:101E300000226549F86801F095FD0346002B01D0AA
:101E40000323BDE0FB681B681A68FB681B6822F46B
:101E500080621A6072B6FB681B681869FB685B6A6F
:101E6000591CFA685162C2B21A70FB681B8D013BA3
:101E70009AB2FB681A85FB685B8D9BB2013B9AB2F4
:101E8000FB685A857B6A0093BB6B00224E49F86859
:101E900001F068FD0346002B01D0032390E0FB68AE
:101EA0001B681A68FB681B6842F400721A60FB68C2
:101EB0001B681869FB685B6A591CFA685162C2B2F8
:101EC0001A70FB681B8D013B9AB2FB681A85FB6890
:101ED0005B8D9BB2013B9AB2FB685A8562B6FB6888
:101EE0001B681869FB685B6A591CFA685162C2B2C8
:101EF0001A70FB681B8D013B9AB2FB681A85FB6860
:101F00005B8D9BB2013B9AB2FB685A8544E07A6ACA
:101F1000B96BF86801F05FFE0346002B07D0FB6841
:101F20001B6C202B01D103234AE0012348E0FB680E
:101F30001B681869FB685B6A591CFA685162C2B277
:101F40001A70FB681B8D013B9AB2FB681A85FB680F
:101F50005B8D9BB2013B9AB2FB685A85FB681B689C
:101F60005B6903F00403042B16D1FB681B68186936
:101F7000FB685B6A591CFA685162C2B21A70FB684E
:101F80001B8D013B9AB2FB681A85FB685B8D9BB287
:101F9000013B9AB2FB685A85FB681B8D002B7FF4CE
:101FA000C2AEFB68202283F83D20FB68002283F844
:101FB0003E20FB68002283F83C20002300E002233F
:101FC00018462837BD4680BD0400010080B58CB09E
:101FD00002AFF8607A603B600B467B8100237B6236
:101FE00000233B620023FB610023BB6101237B6173
:101FF000FFF7BCF87862FB6893F83D30DBB2202B2A
:1020000040F00B817B6A0093192301228549F8680F
:1020100001F0A8FC0346002B01D00223FEE0FB6880
:1020200093F83C30012B01D10223F7E0FB68012239
:1020300083F83C20FB681B681B6803F00103012B3D
:1020400007D0FB681B681A68FB681B6842F0010236
:102050001A60FB681B681A68FB681B6822F4006240
:102060001A60FB68242283F83D20FB6800221A6472
:10207000FB686D4ADA62FB681B681A68FB681B68BC
:1020800042F480721A607B6A00933B6800224FF032
:102090000111F86801F066FC0346002B01D0032310
:1020A000BCE07B89DBB21A46FB681B6802F0FE02CB
:1020B0001A61FFF75BF87862FB681B685B6903F0E5
:1020C0000203022B0CBF01230023DBB23B62FB683F
:1020D0001B685B6903F48063B3F5806F0CBF012359
:1020E0000023DBB2FB61FB6893F83D30DBB2BB61E0
:1020F0002AE03B68002B07D0FFF738F802467B6ADE
:10210000D31A3A689A4203D2FB68A02283F83D2092
:10211000FB681B685B6903F00203022B0CBF012301
:102120000023DBB23B62FB681B685B6903F48063DE
:10213000B3F5806F0CBF01230023DBB2FB61FB68AA
:1021400093F83D30DBB2BB613B6A002B05D1FB69E4
:10215000002B02D1BB69A02BCBD1FB68202283F8D6
:102160003D20FB681B685B6903F00203022B29D149
:10217000FB681B681A68FB681B6842F400721A60EF
:1021800000233B61FB681B685B693B61FB681B6864
:102190009B693B613B697B6A0093192301222149BA
:1021A000F86801F0DFFB0346002B01D0032335E084
:1021B000FB68202283F83D20FB68002283F83C2046
:1021C00000232BE0FB681B681A68FB681B6842F45D
:1021D00000721A60FB681B686FF480625A617B6A48
:1021E0000093192301220F49F86801F0BBFB034655
:1021F000002B01D0032311E07B695A1C7A617A68B5
:102200009A423FF638AFFB68202283F83D20FB68F6
:10221000002283F83C20012300E0022318462837DF
:10222000BD4680BD020010000000FFFF80B586B0F3
:1022300000AF78607B681B689B697B617B681B686B
:102240005B693B617B681B685B68FB607B6893F83C
:102250003E30DBB2BB60BB68102B02D0BB68402BAA
:1022600072D13B6903F00113002B08D0FB6803F423
:102270000073002B03D0786800F0B8FC1AE03A69CC
:10228000654B1340002B08D0FB6803F40073002B50
:1022900003D0786800F016FD0CE03A695F4B1340FC
:1022A000002B07D0FB6803F40073002B02D0786882
:1022B00000F018FD7A695A4B1340002B22D03A697E
:1022C000584B1340002B0DD0FB6803F48063002BA8
:1022D00008D03A69544B1340002B03D1786800F0C2
:1022E000B9F930E03A69504B1340002B00F08F8071
:1022F000FB6803F40073002B00F08980786800F01D
:102300009EFA84E03A69494B1340002B0DD0FB68DC
:1023100003F48063002B08D03A69434B1340002B31
:1023200003D1786800F000FB0DE03A693E4B1340A2
:10233000002B6CD0FB6803F40073002B67D0786827
:1023400000F093FB63E062E03A69344B1340002BEA
:1023500008D0FB6803F40073002B03D0786800F00A
:10236000E8FE55E03A69324B1340002B08D0FB6879
:1023700003F40073002B03D0786800F005FF47E0FA
:102380007A69274B1340002B20D03A69254B134024
:10239000002B0DD0FB6803F48063002B08D03A6952
:1023A000214B1340002B03D1786800F008FE2FE08A
:1023B0003A691D4B1340002B2AD0FB6803F40073CD
:1023C000002B25D0786800F037FE21E03A69174BE2
:1023D0001340002B0DD0FB6803F48063002B08D062
:1023E0003A69114B1340002B03D1786800F043FE8B
:1023F0000EE03A690C4B1340002B09D0FB6803F444
:102400000073002B04D0786800F073FE00E000BF7A
:1024100000BF1837BD4680BD080001000200010062
:1024200004001000800001000400010040000100D1
:102430001000010080B588B000AF78600023FB6118
:102440000023BB6100237B6100233B617B681B6829
:102450005B69FB607B681B685B68BB60FA684D4B1F
:102460001340002B17D0BB6803F48073002B12D0ED
:102470007B681B6C43F001027B681A647B681B68F5
:102480006FF480725A617B681B681A687B681B68EE
:1024900042F400421A60FB6803F48133002B0FD032
:1024A000BB6803F48073002B0AD07B681B6C43F07D
:1024B00002027B681A647B681B686FF400725A61C1
:1024C000FB6803F48233002B44D0BB6803F48073B1
:1024D000002B3FD07B6893F83E30DBB2FB617B681A
:1024E0005B8D9BB2BB617B6893F83D30DBB27B6157
:1024F0007B681B6B3B61FB69202B12D1BB69002BF6
:102500000FD17B69212B08D07B69292B05D07B69F2
:10251000282B06D13B69212B03D1786800F0FAFE05
:1025200018E07B681B6C43F004027B681A647B68CC
:1025300093F83E30DBB2102B07D17B681B681A681A
:102540007B681B6842F400721A607B681B686FF43A
:1025500080625A61FB6803F48433002B0FD0BB68A0
:1025600003F48073002B0AD07B681B6C43F00802D5
:102570007B681A647B681B686FF400625A617B6831
:102580001B6C002B02D0786800F036FF00BF2037AC
:10259000BD4680BD0001010080B483B000AF78600B
:1025A00000BF0C37BD4680BC704780B483B000AF1D
:1025B000786000BF0C37BD4680BC704780B483B0E4
:1025C00000AF786000BF0C37BD4680BC704780B458
:1025D00083B000AF786000BF0C37BD4680BC704749
:1025E00080B483B000AF78600B46FB7013463B802D
:1025F00000BF0C37BD4680BC704780B483B000AFCD
:10260000786000BF0C37BD4680BC704780B483B093
:1026100000AF786000BF0C37BD4680BC704780B407
:1026200083B000AF786000BF0C37BD4680BC7047F8
:1026300080B483B000AF786000BF0C37BD4680BC6B
:10264000704780B483B000AF786000BF0C37BD46E0
:1026500080BC704780B586B000AF78607B6893F827
:102660003D30DBB27B617B6893F83E30DBB23B618F
:102670007B68DB6AFB607B681B8D002B50D17B691C
:10268000212B4DD1FB68042B1DD0FB68082B1AD0E1
:10269000FB6813F5803F16D07B681B685A687B681F
:1026A0001B6822F4E0625A607B6811221A637B681F
:1026B000002283F83E207B68202283F83D20786842
:1026C000FFF76AFFB6E07B681B685A687B681B6887
:1026D00022F4E0625A607B681B681A687B681B689A
:1026E00042F400721A607B6800221A637B68202221
:1026F00083F83D207B6893F83E30DBB2402B07D156
:102700007B68002283F83E207868FFF77FFF91E026
:102710007B68002283F83E207868FFF73DFF89E060
:102720007B69212B06D03B69402B40F083807B697D
:10273000222B7FD17B685B8D9BB2002B08D17B68FD
:102740001B685A687B681B6822F480625A6071E0DB
:102750007B6893F83E30DBB2402B5BD17B681B6D0E
:10276000002B1DD17B68DB6C012B0BD17B689B6C34
:10277000DAB27B681B681A617B681B6D9A1C7B68E8
:102780001A6557E07B689B6C9BB21B12DAB27B68C0
:102790001B681A617B681B6D5A1C7B681A6549E0CF
:1027A0007B681B6D012B0BD17B689B6CDAB27B685D
:1027B0001B681A617B681B6D5A1C7B681A6539E0BF
:1027C0007B681B6D022B35D17B6893F83D30DBB203
:1027D000222B08D17B681B681A687B681B6842F44F
:1027E00080721A6026E07B6893F83D30DBB2212BC3
:1027F00020D17B685B6A591C7A6851621A787B68C1
:102800001B681A617B685B8D9BB2013B9AB27B6847
:102810005A850FE07B685B6A591C7A6851621A78A6
:102820007B681B681A617B685B8D9BB2013B9AB227
:102830007B685A85002318461837BD4680BD80B591
:1028400084B000AF78607B68DB6AFB607B6893F8DC
:102850003D30DBB2212B62D17B685B8D9BB2002BBC
:1028600010D07B685B6A591C7A6851621A787B6861
:102870001B681A617B685B8D9BB2013B9AB27B68D7
:102880005A854CE0FB68042B1DD0FB68082B1AD03E
:10289000FB6813F5803F16D07B681B685A687B681D
:1028A0001B6822F4E0625A607B6811221A637B681D
:1028B000002283F83E207B68202283F83D20786840
:1028C000FFF76AFE2BE07B681B685A687B681B6811
:1028D00022F4E0625A607B681B681A687B681B6898
:1028E00042F400721A607B6800221A637B6820221F
:1028F00083F83D207B6893F83E30DBB2402B07D154
:102900007B68002283F83E207868FFF77FFE06E0B0
:102910007B68002283F83E207868FFF73DFE0023A5
:1029200018461037BD4680BD80B584B000AF7860D2
:102930007B6893F83D30DBB2222B40F0918000237E
:10294000FB607B685B8D9BB2FB60FB68032B11D93E
:102950007B681B6818697B685B6A591C7A685162DE
:10296000C2B21A707B685B8D9BB2013B9AB27B68E6
:102970005A8575E0FB68022B02D0FB68032B25D13A
:102980007B68DB6A022B10D07B681B681A687B6847
:102990001B6822F480621A607B681B681A687B6877
:1029A0001B6842F400621A6007E07B681B681A68C3
:1029B0007B681B6842F480621A607B681B685A68F7
:1029C0007B681B6822F480625A6049E07B68DB6A9E
:1029D000022B08D07B681B681A687B681B6822F48E
:1029E00080621A6007E07B681B681A687B681B6856
:1029F00042F480621A607B681B685A687B681B68B7
:102A000022F4E0625A607B681B6818697B685B6A25
:102A1000591C7A685162C2B21A707B685B8D9BB296
:102A2000013B9AB27B685A857B68202283F83D205F
:102A30007B6800221A637B6893F83E30DBB2402B40
:102A400007D17B68002283F83E207868FFF7E7FD16
:102A500006E07B68002283F83E207868FFF7A5FD3A
:102A6000002318461037BD4680BD80B584B000AF46
:102A700078607B68DB6AFB607B685B8D9BB2032BB5
:102A800023D1FB68042B06D0FB68082B03D0FB681E
:102A900013F5803F07D17B681B681A687B681B6849
:102AA00022F480621A607B681B6818697B685B6A25
:102AB000591C7A685162C2B21A707B685B8D9BB2F6
:102AC000013B9AB27B685A858BE07B685B8D9BB239
:102AD000022B75D1FB68042B23D0FB68082B20D078
:102AE000FB6813F5803F1CD0FB68022B08D07B6885
:102AF0001B681A687B681B6822F480621A6007E012
:102B00007B681B681A687B681B6842F480621A60E5
:102B10007B681B685A687B681B6822F440725A60A5
:102B20000FE07B681B685A687B681B6822F4407260
:102B30005A607B681B681A687B681B6842F40072E5
:102B40001A607B681B6818697B685B6A591C7A6825
:102B50005162C2B21A707B685B8D9BB2013B9AB224
:102B60007B685A857B681B6818697B685B6A591C9F
:102B70007A685162C2B21A707B685B8D9BB2013B6E
:102B80009AB27B685A857B68202283F83D207B6857
:102B900000221A637B6893F83E30DBB2402B07D1EA
:102BA0007B68002283F83E207868FFF738FD18E044
:102BB0007B68002283F83E207868FFF7F6FC10E07F
:102BC0007B681B6818697B685B6A591C7A6851626C
:102BD000C2B21A707B685B8D9BB2013B9AB27B6874
:102BE0005A85002318461037BD4680BD80B483B097
:102BF00000AF78607B6893F83E30DBB2402B17D192
:102C00007B681B6D002B09D17B685B6CDBB21A46BD
:102C10007B681B6802F0FE021A614DE07B685B6C0A
:102C2000DBB243F00103DAB27B681B681A6143E050
:102C30007B681B69B3F5804F19D17B6893F83D30F1
:102C4000DBB2212B09D17B685B6CDBB21A467B6857
:102C50001B6802F0FE021A612EE07B685B6CDBB23F
:102C600043F00103DAB27B681B681A6124E07B68D9
:102C70001B6D002B0ED17B685B6C9BB2DB11DBB252
:102C800003F00603DBB263F00F03DAB27B681B6864
:102C90001A6111E07B681B6D012B0DD17B685B6CA9
:102CA0009BB2DB11DBB203F00603DBB263F00E0371
:102CB000DAB27B681B681A61002318460C37BD46E0
:102CC00080BC704780B483B000AF78607B685B6C79
:102CD000DAB27B681B681A61002318460C37BD46C0
:102CE00080BC704780B491B000AF78607B6893F887
:102CF0003E30DBB2FB637B68DB6ABB637B681B6BCC
:102D00007B637B6893F83D30DBB2222B40F0468139
:102D10007B681B6D002B0ED1FB6B402B0BD100236E
:102D20003B637B681B685B693B637B681B689B69D3
:102D30003B633B6B3DE17B681B6D002B1DD17B68CA
:102D40001B69B3F5404F18D10023FB627B681B68F9
:102D50005B69FB627B681B689B69FB62FB6A7B6843
:102D60001B681A687B681B6842F480721A607B6873
:102D70001B6D5A1C7B681A651BE17B685B8D9BB2DF
:102D8000002B13D10023BB627B681B685B69BB62AD
:102D90007B681B689B69BB62BB6A7B681B681A689F
:102DA0007B681B6842F400721A60F3E07B685B8DFD
:102DB0009BB2012B40F08280BB6B13F5803F37D173
:102DC0007B681B681A687B681B6822F480621A6043
:102DD0007B681B685B6803F40063B3F5006F13D175
:102DE0007B681B681A687B681B6822F480621A6023
:102DF00000237B627B681B685B697B627B681B6866
:102E00009B697B627B6AC5E000233B627B681B6831
:102E10005B693B627B681B689B693B623B6A7B68C2
:102E20001B681A687B681B6842F400721A60B1E084
:102E3000BB6B042B26D0BB6B082B23D07B6B122BD8
:102E400020D07B68DB6A022B08D07B681B681A687D
:102E50007B681B6822F480621A6007E07B681B684D
:102E60001A687B681B6842F480621A600023FB6169
:102E70007B681B685B69FB617B681B689B69FB6106
:102E8000FB6987E07B681B681A687B681B6822F413
:102E900080621A600023BB617B681B685B69BB6151
:102EA0007B681B689B69BB61BB697B681B681A6890
:102EB0007B681B6842F400721A606BE07B685B8D74
:102EC0009BB2022B43D17B68DB6A022B1BD07B6851
:102ED0001B681A687B681B6842F400621A60002352
:102EE0007B617B681B685B697B617B681B689B6996
:102EF0007B617B697B681B681A687B681B6822F4AE
:102F000080621A6012E07B681B681A687B681B6825
:102F100042F480621A6000233B617B681B685B6936
:102F20003B617B681B689B693B613B697B681B68F5
:102F30005B6803F40063B3F5006F2BD17B681B68FB
:102F40005A687B681B6842F480525A6022E07B68B2
:102F50001B681A687B681B6842F480621A607B6891
:102F60001B685B6803F40063B3F5006F07D17B68EF
:102F70001B685A687B681B6842F480525A600023C1
:102F8000FB607B681B685B69FB607B681B689B69F7
:102F9000FB60FB687B6800221A650AE00023BB60C7
:102FA0007B681B685B69BB607B681B689B69BB6057
:102FB000BB68002318464437BD4680BC704780B5C7
:102FC00084B000AF78607B6893F83D30DBB2FB6083
:102FD0007B685B8D9BB2002B29D07B685B6A591C98
:102FE0007A6851621A787B681B681A617B685B8D0E
:102FF0009BB2013B9AB27B685A857B685B8D9BB222
:10300000002B14D1FB68292B11D17B681B685A68EF
:103010007B681B6822F480625A607B6821221A63F5
:103020007B68282283F83D207868FFF7C7FA0023E1
:1030300018461037BD4680BD80B483B000AF7860BD
:103040007B685B8D9BB2002B0FD07B685B6A591C41
:103050007A6851621A787B681B681A617B685B8D9D
:103060009BB2013B9AB27B685A85002318460C3705
:10307000BD4680BC704780B584B000AF78607B6887
:1030800093F83D30DBB2FB607B685B8D9BB2002B1D
:103090002AD07B681B6818697B685B6A591C7A6850
:1030A0005162C2B21A707B685B8D9BB2013B9AB2CF
:1030B0007B685A857B685B8D9BB2002B14D1FB68C3
:1030C0002A2B11D17B681B685A687B681B6822F425
:1030D00080625A607B6822221A637B68282283F808
:1030E0003D207868FFF773FA002318461037BD4675
:1030F00080BD80B483B000AF78607B685B8D9BB28D
:10310000002B10D07B681B6818697B685B6A591CB0
:103110007A685162C2B21A707B685B8D9BB2013BC8
:103120009AB27B685A85002318460C37BD4680BC8E
:10313000704780B584B000AF78600023FB73002334
:10314000BB817B681B689B6903F00403042B01D0DF
:103150000123FB737B681B689B6903F08003802B52
:1031600003D07B68DB68BB8102E07B689B69BB8125
:10317000BA89FB7B19467868FFF732FA00231846B4
:103180001037BD4680BD000080B584B000AF7860C8
:103190007B6893F83D30DBB2FB607B681B685A6844
:1031A0007B681B6822F4E0625A600023BB607B6886
:1031B0001B685B69BB607B681B681A687B681B685F
:1031C00042F001021A60BB687B681B681A687B6862
:1031D0001B6822F480621A607B681B685B6803F4DA
:1031E0000063B3F5006F1AD17B6893F83D30DBB212
:1031F000222B05D07B6893F83D30DBB22A2B07D118
:103200007B689B6B1B685B689AB27B685A8506E09B
:103210007B685B6B1B685B689AB27B685A857B68CE
:103220005B8D9BB2002B35D07B681B685B6903F01C
:103230000403042B10D17B681B6818697B685B6AE8
:10324000591C7A685162C2B21A707B685B8D9BB25E
:10325000013B9AB27B685A857B681B685B6903F007
:103260004003402B10D17B681B6818697B685B6A40
:10327000591C7A685162C2B21A707B685B8D9BB22E
:10328000013B9AB27B685A857B681B6C43F0040251
:103290007B681A647B681B6C002B03D0786800F095
:1032A000ABF82FE0FB68282B05D0FB682A2B02D057
:1032B000FB68292B11D17B68154ADA627B680022F2
:1032C0001A637B68202283F83D207B68002283F804
:1032D0003E207868FFF791F914E07B681B6B222B86
:1032E00002D0FB68222B0DD17B6800221A637B6819
:1032F000202283F83D207B68002283F83E207868F6
:10330000FFF765F9002318461037BD4680BD00BFA2
:103310000000FFFF80B584B000AF78607B6893F851
:103320003D30DBB2FB607B68DB6ABB60BB68042BB3
:1033300002D0BB68082B29D1FB68282B26D17B68DB
:103340002C4ADA627B681B685A687B681B6822F427
:10335000E0625A607B681B686FF480625A617B6828
:103360001B681A687B681B6822F480621A607B689D
:1033700000221A637B68202283F83D207B680022AC
:1033800083F83E207868FFF738F92EE0FB68212BA0
:1033900026D17B68174ADA627B6821221A637B6830
:1033A000202283F83D207B68002283F83E207B6842
:1033B0001B685A687B681B6822F4E0625A607B686D
:1033C0001B686FF480625A617B681B681A687B68AF
:1033D0001B6822F480621A607868FFF7EFF804E057
:1033E0007B681B686FF480625A61002318461037AF
:1033F000BD4680BD0000FFFF80B584B000AF78609F
:103400007B6893F83D30DBB2FB60FB68292B02D070
:10341000FB682A2B07D17B6800221A637B6828226D
:1034200083F83D2018E07B6893F83D30DBB2602BD9
:103430000BD07B681B685B6803F40063B3F5006F17
:1034400003D07B68202283F83D207B6800221A632A
:103450007B68002283F83E207B681B681A687B68C3
:103460001B6822F400621A607B681B685B6803F4C7
:103470000063B3F5006F5FD17B681B685A687B6897
:103480001B6822F400625A607B685B6B93F8213002
:10349000012B20D07B685B6B574A5A637B685B6B60
:1034A0001846FDF76BFF0346002B00F083807B6816
:1034B0001B681A687B681B6822F001021A607B682F
:1034C000202283F83D207B685B6B5B6B7A68526BD4
:1034D000104698476EE07B689B6B474A5A637B684F
:1034E0009B6B1846FDF74AFF0346002B62D07B68B2
:1034F0001B685B6903F04003402B09D17B681B68A4
:1035000018697B685B6A591C7A685162C2B21A708A
:103510007B681B681A687B681B6822F001021A60CE
:103520007B68202283F83D207B689B6B5B6B7A680D
:10353000926B104698473DE07B6893F83D30DBB2D4
:10354000602B23D17B68202283F83D207B680022FA
:103550001A647B681B685B6903F04003402B09D148
:103560007B681B6818697B685B6A591C7A685162C2
:10357000C2B21A707B681B681A687B681B6822F0ED
:1035800001021A607868FFF75CF813E07B681B683B
:103590005B6903F04003402B09D17B681B68186905
:1035A0007B685B6A591C7A685162C2B21A7078688B
:1035B000FFF73EF87B6893F83D30DBB2282B16D13D
:1035C0007B681B6C03F00403042B10D17B680B4A4F
:1035D000DA627B6800221A637B68202283F83D2030
:1035E0007B68002283F83E207868FFF706F800BF6A
:1035F0001037BD4680BD00BFC93800080000FFFF7E
:1036000080B588B002AFF8607A603B600B467B8182
:10361000FB68DB6A7B617B69042B06D07B69012B2D
:1036200003D07B6913F5803F08D1FB681B681A68DB
:10363000FB681B6842F480721A600BE0FB681B6B2E
:10364000122B07D1FB681B681A68FB681B6842F4E1
:1036500080721A603B6800937B6800224FF0011172
:10366000F86800F07FF90346002B01D0032341E006
:10367000FB681B69B3F5804F08D17B89DBB21A4622
:10368000FB681B6802F0FE021A6121E07B89DB11F6
:10369000DBB203F00603DBB263F00F03DAB2FB68C0
:1036A0001B681A613B687A681449F86800F0ABF946
:1036B0000346002B07D0FB681B6C042B01D10123B0
:1036C00018E0032316E07B89DAB2FB681B681A61F5
:1036D0003B687A680A49F86800F095F90346002BC0
:1036E00007D0FB681B6C042B01D1012302E00323EC
:1036F00000E0002318461837BD4680BD08000100D1
:103700000200010080B588B002AFF860084611469B
:103710001A4603467B810B463B811346FB80FB68C0
:103720001B681A68FB681B6842F480621A60FB68B9
:103730001B681A68FB681B6842F480721A607B6A17
:1037400000933B6A00224FF00111F86800F00AF97B
:103750000346002B01D00323B0E07B89DBB21A467D
:10376000FB681B6802F0FE021A617B6A3A6A5549DF
:10377000F86800F048F90346002B07D0FB681B6C83
:10378000042B01D1012399E0032397E000237B61FF
:10379000FB681B685B697B61FB681B689B697B61DD
:1037A0007B697A6A396AF86800F09BF90346002B56
:1037B0000FD0FB681B6C042B09D1FB681B681A68CF
:1037C000FB681B6842F400721A60012376E0032351
:1037D00074E0FB88012B05D13B89DAB2FB681B68DA
:1037E0001A6123E03B891B0A9BB2DAB2FB681B68B3
:1037F0001A617A6A396AF86800F073F90346002B97
:103800000FD0FB681B6C042B09D1FB681B681A687E
:10381000FB681B6842F400721A6001234EE0032328
:103820004CE03B89DAB2FB681B681A617A6A396A34
:10383000F86800F056F90346002B0FD0FB681B6CAC
:10384000042B09D1FB681B681A68FB681B6842F4EB
:1038500000721A60012331E003232FE0FB681B682C
:103860001A68FB681B6842F480721A607B6A0093D6
:103870003B6A00224FF00111F86800F073F803462C
:10388000002B01D0032319E07B89DBB243F0010355
:10389000DAB2FB681B681A617B6A3A6A0949F86800
:1038A00000F0B1F80346002B07D0FB681B6C042B1B
:1038B00001D1012302E0032300E00023184618375A
:1038C000BD4680BD0200010080B584B000AF7860C5
:1038D0007B685B6AFB60FB681B681A68FB681B6897
:1038E00022F480621A60FB6800225A85FB685B6BD9
:1038F00000225A63FB689B6B00225A63FB6893F8B3
:103900003D30DBB2602B16D1FB68202283F83D20CE
:10391000FB68002283F83E20FB6800221A64FB68E3
:103920001B681A68FB681B6822F001021A60F868BD
:10393000FEF787FE12E0FB68202283F83D20FB683B
:10394000002283F83E20FB681B681A68FB681B682E
:1039500022F001021A60F868FEF76AFE00BF103715
:10396000BD4680BD80B584B000AFF860B9603B60F3
:103970001346FB711FE03B68B3F1FF3F1BD03B6870
:10398000002B07D0FDF7F2FB0246BB69D31A3A6859
:103990009A4210D2FB6800221A63FB68202283F847
:1039A0003D20FB68002283F83E20FB68002283F85C
:1039B0003C20032323E0BB681B0CDBB2012B0DD1A1
:1039C000FB681B685B69DA43BB6813409BB2002B42
:1039D0000CBF01230023DBB21A460CE0FB681B6816
:1039E0009B69DA43BB6813409BB2002B0CBF0123D9
:1039F0000023DBB21A46FB799A42BCD0002318465A
:103A00001037BD4680BD80B584B000AFF860B960A6
:103A10007A603B6040E0FB681B685B6903F480638D
:103A2000B3F5806F1CD1FB681B681A68FB681B68C4
:103A300042F400721A60FB681B686FF480625A617E
:103A4000FB6804221A64FB6800221A63FB682022C8
:103A500083F83D20FB68002283F83C2001233CE0F2
:103A60007B68B3F1FF3F17D07B68002B07D0FDF7D1
:103A70007DFB02463B68D31A7A689A420CD2FB68F7
:103A800000221A63FB68202283F83D20FB68002295
:103A900083F83C20032320E0BB681B0CDBB2012B26
:103AA0000CD1FB681B685B69DA43BB6813409BB2AF
:103AB000002B14BF01230023DBB20BE0FB681B6863
:103AC0009B69DA43BB6813409BB2002B14BF0123F0
:103AD0000023DBB2002B9ED1002318461037BD46D1
:103AE00080BD80B584B000AFF860B9607A6029E02D
:103AF000F86800F0BAF80346002B01D0012329E052
:103B0000BB68B3F1FF3F1DD0BB68002B07D0FDF7AA
:103B10002DFB02467B68D31ABA689A4212D2FB6820
:103B20001B6C43F02002FB681A64FB6800221A63D6
:103B3000FB68202283F83D20FB68002283F83C20AC
:103B4000032307E0FB681B685B6903F08003802B9D
:103B5000CED1002318461037BD4680BD80B584B055
:103B600000AFF860B9607A6029E0F86800F07DF88D
:103B70000346002B01D0012329E0BB68B3F1FF3FCE
:103B80001DD0BB68002B07D0FDF7F0FA02467B681A
:103B9000D31ABA689A4212D2FB681B6C43F0200217
:103BA000FB681A64FB6800221A63FB68202283F812
:103BB0003D20FB68002283F83C20032307E0FB68DC
:103BC0001B685B6903F00403042BCED10023184665
:103BD0001037BD4680BD80B584B000AFF860B960D5
:103BE0007A6036E0FB681B685B6903F01003102BFA
:103BF00014D1FB681B686FF010025A61FB68002249
:103C00001A64FB6800221A63FB68202283F83D20B7
:103C1000FB68002283F83C20012322E0BB68002BD4
:103C200007D0FDF7A3FA02467B68D31ABA689A4216
:103C30000FD2FB681B6C43F02002FB681A64FB6820
:103C4000202283F83D20FB68002283F83C200323D8
:103C500007E0FB681B685B6903F04003402BC1D1A0
:103C6000002318461037BD4680BD80B483B000AF36
:103C700078607B681B685B6903F48063B3F5806FD1
:103C800014D17B681B686FF480625A617B680422E0
:103C90001A647B6800221A637B68202283F83D2027
:103CA0007B68002283F83C20012300E000231846B3
:103CB0000C37BD4680BC704780B586B000AF7860D9
:103CC00000233B617B681B6803F00103002B00F0BD
:103CD0008780924B5B6803F00C03042B0CD08F4B56
:103CE0005B6803F00C03082B12D18C4B5B6803F468
:103CF0008033B3F5803F0BD1884B1B6803F400334E
:103D0000002B6CD07B685B68002B68D101232DE20F
:103D10007B685B68B3F5803F06D1804B1B687F4AA8
:103D200043F4803313602EE07B685B68002B0CD17A
:103D30007A4B1B68794A23F480331360774B1B68F6
:103D4000764A23F4802313601DE07B685B68B3F53B
:103D5000A02F0CD1714B1B68704A43F48023136071
:103D60006E4B1B686D4A43F4803313600BE06B4B62
:103D70001B686A4A23F480331360684B1B68674AE8
:103D800023F4802313607B685B68002B13D0FDF75E
:103D9000EDF9386108E0FDF7E9F902463B69D31A0D
:103DA000642B01D90323E1E15C4B1B6803F400336E
:103DB000002BF0D014E0FDF7D9F9386108E0FDF7E9
:103DC000D5F902463B69D31A642B01D90323CDE10F
:103DD000524B1B6803F40033002BF0D100E000BF0E
:103DE0007B681B6803F00203002B63D04B4B5B68BE
:103DF00003F00C03002B0BD0484B5B6803F00C0363
:103E0000082B1CD1454B5B6803F48033002B16D183
:103E1000424B1B6803F00203002B05D07B681B6933
:103E2000012B01D00123A1E13C4B1B6823F0F802D8
:103E30007B685B69DB00394913430B603AE07B68C0
:103E40001B69002B20D0364B01221A60FDF78EF93A
:103E5000386108E0FDF78AF902463B69D31A022B64
:103E600001D9032382E12D4B1B6803F00203002BD1
:103E7000F0D02A4B1B6823F0F8027B685B69DB00FB
:103E8000264913430B6015E0254B00221A60FDF70D
:103E90006DF9386108E0FDF769F902463B69D31A0C
:103EA000022B01D9032361E11C4B1B6803F00203C1
:103EB000002BF0D17B681B6803F00803002B39D07E
:103EC0007B689B69002B19D0164B01221A60FDF705
:103ED0004DF9386108E0FDF749F902463B69D31A0C
:103EE000022B01D9032341E10C4B5B6A03F002036F
:103EF000002BF0D0012000F013FB1BE0094B002247
:103F00001A60FDF733F938610EE0FDF72FF902462C
:103F10003B69D31A022B07D9032327E10010024083
:103F20000000424280044242924B5B6A03F002036B
:103F3000002BEAD17B681B6803F00403002B00F020
:103F4000A6800023FB758B4BDB6903F08053002BAD
:103F50000DD1884BDB69874A43F08053D361854B91
:103F6000DB6903F08053FB60FB680123FB75824B28
:103F70001B6803F48073002B18D17F4B1B687E4AAB
:103F800043F480731360FDF7F1F8386108E0FDF742
:103F9000EDF802463B69D31A642B01D90323E5E00F
:103FA000754B1B6803F48073002BF0D07B68DB68D3
:103FB000012B06D16F4B1B6A6E4A43F0010313625B
:103FC0002DE07B68DB68002B0CD16A4B1B6A694AC9
:103FD00023F001031362674B1B6A664A23F0040354
:103FE00013621CE07B68DB68052B0CD1614B1B6AFC
:103FF000604A43F0040313625E4B1B6A5D4A43F060
:10400000010313620BE05B4B1B6A5A4A23F0010366
:104010001362584B1B6A574A23F0040313627B68F0
:10402000DB68002B15D0FDF7A1F838610AE0FDF739
:104030009DF802463B69D31A41F28832934201D976
:10404000032393E04B4B1B6A03F00203002BEED0DB
:1040500014E0FDF78BF838610AE0FDF787F80246B7
:104060003B69D31A41F28832934201D903237DE0A0
:10407000404B1B6A03F00203002BEED1FB7D012BAA
:1040800005D13C4BDB693B4A23F08053D3617B680D
:10409000DB69002B69D0374B5B6803F00C03082BFE
:1040A00061D07B68DB69022B46D1344B00221A6059
:1040B000FDF75CF8386108E0FDF758F802463B6907
:1040C000D31A022B01D9032350E02A4B1B6803F0BB
:1040D0000073002BF0D17B681B6AB3F5803F08D1D9
:1040E000244B5B6823F400327B689B6821491343AF
:1040F0004B60204B5B6823F474127B68196A7B6801
:104100005B6A0B431B4913434B601C4B01221A6033
:10411000FDF72CF8386108E0FDF728F802463B6906
:10412000D31A022B01D9032320E0124B1B6803F0A2
:104130000073002BF0D018E0104B00221A60FDF73E
:1041400015F8386108E0FDF711F802463B69D31A0B
:10415000022B01D9032309E0064B1B6803F000730F
:10416000002BF0D101E0012300E0002318461837AE
:10417000BD4680BD00100240007000406000424219
:1041800080B584B000AF786039600023FB607E4B5F
:104190001B6803F007033A689A4210D97A4B1B68F0
:1041A00023F0070278493B6813430B60764B1B688A
:1041B00003F007033A689A4201D00123E0E07B68EC
:1041C0001B6803F00203002B20D07B681B6803F000
:1041D0000403002B05D06D4B5B686C4A43F4E0632D
:1041E00053607B681B6803F00803002B05D0674B06
:1041F0005B68664A43F460535360644B5B6823F02A
:10420000F0027B689B68614913434B607B681B68C5
:1042100003F00103002B6AD07B685B68012B07D198
:104220005A4B1B6803F40033002B15D10123A7E080
:104230007B685B68022B07D1544B1B6803F000734B
:10424000002B09D101239BE0504B1B6803F00203B4
:10425000002B01D1012393E04C4B5B6823F0030258
:104260007B685B68494913434B60FCF77FFFF8604C
:104270007B685B68012B12D10AE0FCF777FF0246EE
:10428000FB68D31A41F28832934201D9032377E0C5
:104290003E4B5B6803F00C03042BEED127E07B68F8
:1042A0005B68022B1DD10AE0FCF760FF0246FB6849
:1042B000D31A41F28832934201D9032360E0334B91
:1042C0005B6803F00C03082BEED110E0FCF74EFF07
:1042D0000246FB68D31A41F28832934201D9032384
:1042E0004EE02A4B5B6803F00C03002BEED1264B0B
:1042F0001B6803F007033A689A4210D2224B1B68EE
:1043000023F0070220493B6813430B601E4B1B68D8
:1043100003F007033A689A4201D0012330E07B683A
:104320001B6803F00403002B08D0184B5B6823F4D0
:10433000E0627B68DB68154913434B607B681B6850
:1043400003F00803002B09D0104B5B6823F4605284
:104350007B681B69DB000D4913434B6000F01CF8C0
:1043600001460A4B5B681B0903F00F03084AD35C44
:1043700021FA03F3074A1360002003F0F9FC00233D
:1043800018461037BD4680BD002002400010024094
:1043900010C400082800002090B48AB000AF2A4B57
:1043A0003C1D0FCB84E80F00284B1B883B8000236B
:1043B000FB610023BB6100237B6200237B61002340
:1043C0003B62234B5B68FB61FB6903F00C03042B2E
:1043D00002D0082B03D02DE01E4B3B622DE0FB6981
:1043E0009B0C03F00F0307F12802134413F8243C3D
:1043F0007B61FB6903F48033002B13D0144B5B68A3
:104400005B0C03F0010307F12802134413F8283C66
:10441000BB617B690F4A02FB03F2BB69B2FBF3F39A
:104420007B6204E07B690C4A02FB03F37B627B6ADC
:104430003B6202E0074B3B6200BF3B6A18462837ED
:10444000BD4690BC704700BF98C00008A8C00008D7
:104450000010024000127A0000093D0080B400AF55
:10446000024B1B681846BD4680BC704728000020E0
:1044700080B500AFFFF7F2FF0146054B5B681B0AF2
:1044800003F00703034AD35C21FA03F3184680BD07
:104490000010024020C4000880B500AFFFF7DEFF27
:1044A0000146054B5B68DB0A03F00703034AD35C54
:1044B00021FA03F3184680BD0010024020C4000812
:1044C00080B483B000AF786039607B680F221A60D7
:1044D000114B5B6803F003027B685A600E4B5B680C
:1044E00003F0F0027B689A600B4B5B6803F4E062B8
:1044F0007B68DA60084B5B68DB0803F4E0627B688A
:104500001A61064B1B6803F007023B681A6000BF84
:104510000C37BD4680BC70470010024000200240AE
:1045200080B485B000AF78600A4B1B680A4AA2FBD2
:1045300003235B0A7A6802FB03F3FB6000BFFB689E
:104540005A1EFA60002BF9D100BF1437BD4680BC5B
:10455000704700BF28000020D34D621080B582B0A4
:1045600000AF78607B68002B01D101231DE07B68E0
:1045700093F83D30DBB2002B06D17B68002283F834
:104580003C20786800F015F87B68022283F83D2013
:104590007B681A687B6804331946104600F058F9A6
:1045A0007B68012283F83D20002318460837BD466A
:1045B00080BD80B483B000AF786000BF0C37BD46CB
:1045C00080BC704780B483B000AF78607B681B68A4
:1045D000DA687B681B6842F00102DA607B681B685E
:1045E0001A687B681B6842F001021A6000231846B3
:1045F0000C37BD4680BC704780B582B000AF786094
:104600007B681B681B6903F00203022B22D17B68C5
:104610001B68DB6803F00203022B1BD17B681B685D
:104620006FF002021A617B6801221A777B681B68AF
:104630009B6903F00303002B03D0786800F0EDF8CA
:1046400005E0786800F0E0F8786800F0EFF87B6843
:1046500000221A777B681B681B6903F00403042B94
:1046600022D17B681B68DB6803F00403042B1BD199
:104670007B681B686FF004021A617B6802221A775C
:104680007B681B689B6903F44073002B03D0786838
:1046900000F0C3F805E0786800F0B6F8786800F03C
:1046A000C5F87B6800221A777B681B681B6903F0DA
:1046B0000803082B22D17B681B68DB6803F0080322
:1046C000082B1BD17B681B686FF008021A617B689E
:1046D00004221A777B681B68DB6903F00303002B55
:1046E00003D0786800F099F805E0786800F08CF85D
:1046F000786800F09BF87B6800221A777B681B685B
:104700001B6903F01003102B22D17B681B68DB6848
:1047100003F01003102B1BD17B681B686FF0100295
:104720001A617B6808221A777B681B68DB6903F4CF
:104730004073002B03D0786800F06FF805E07868CC
:1047400000F062F8786800F071F87B6800221A7750
:104750007B681B681B6903F00103012B0ED17B688A
:104760001B68DB6803F00103012B07D17B681B6822
:104770006FF001021A61786803F016FA7B681B6813
:104780001B6903F08003802B0ED17B681B68DB68FC
:1047900003F08003802B07D17B681B686FF08002D9
:1047A0001A61786800F0C3F87B681B681B6903F026
:1047B0004003402B0ED17B681B68DB6803F040038D
:1047C000402B07D17B681B686FF040021A61786844
:1047D00000F035F87B681B681B6903F02003202B71
:1047E0000ED17B681B68DB6803F02003202B07D108
:1047F0007B681B686FF020021A61786800F08EF801
:1048000000BF0837BD4680BD80B483B000AF78607C
:1048100000BF0C37BD4680BC704780B483B000AF8A
:10482000786000BF0C37BD4680BC704780B483B051
:1048300000AF786000BF0C37BD4680BC704780B4C5
:1048400083B000AF786000BF0C37BD4680BC7047B6
:1048500080B485B000AF786039600023FB607B686E
:104860001B68FB607B682A4A93420BD07B68B3F1DC
:10487000804F07D07B68274A934203D07B68264A43
:10488000934208D1FB6823F07003FB603B685B68D0
:10489000FA681343FB607B681D4A93420BD07B6828
:1048A000B3F1804F07D07B681A4A934203D07B68EC
:1048B000194A934208D1FB6823F44073FB603B68BC
:1048C000DB68FA681343FB60FB6823F08003FB603E
:1048D0003B685B69FA681343FB607B68FA681A609F
:1048E0003B689A687B68DA623B681A687B689A6200
:1048F0007B68074A934203D13B681A697B681A6355
:104900007B6801225A6100BF1437BD4680BC7047E6
:10491000002C0140000400400008004080B483B037
:1049200000AF786000BF0C37BD4680BC704780B4D4
:1049300083B000AF786000BF0C37BD4680BC7047C5
:1049400080B582B000AF78607B68002B01D1012375
:104950003FE07B6893F83930DBB2002B06D17B68EF
:10496000002283F83820786803F0B6F97B682422A7
:1049700083F839207B681B68DA687B681B6822F43F
:104980000052DA60786800F00BF97B681B681A69DE
:104990007B681B6822F490421A617B681B685A6925
:1049A0007B681B6822F02A025A617B681B68DA6800
:1049B0007B681B6842F40052DA607B680022DA638D
:1049C0007B68202283F839207B68202283F83A20F4
:1049D000002318460837BD4680BD80B588B002AFB9
:1049E000F860B9603B601346FB8000237B61FB6885
:1049F00093F83930DBB2202B40F08380BB68002B6A
:104A000002D0FB88002B01D101237BE0FB6893F8E7
:104A10003830012B01D1022374E0FB68012283F8B6
:104A20003820FB680022DA63FB68212283F83920F2
:104A3000FCF79CFB7861FB68FA889A84FB68FA882B
:104A4000DA8442E0FB68DB8C9BB2013B9AB2FB68E4
:104A5000DA84FB689B68B3F5805F22D13B680093E2
:104A60007B6900228021F86800F050F80346002B93
:104A700001D0032346E0BB683B613B691B881A46B3
:104A8000FB681B68C2F308025A60FB681B69002BB5
:104A900003D1BB680233BB6017E0BB680133BB6066
:104AA00013E03B6800937B6900228021F86800F0E6
:104AB0002DF80346002B01D0032323E0BB685A1CCA
:104AC000BA601A78FB681B685A60FB68DB8C9BB283
:104AD000002BB7D13B6800937B6900224021F86826
:104AE00000F014F80346002B01D003230AE0FB6812
:104AF000202283F83920FB68002283F83820002325
:104B000000E0022318461837BD4680BD80B584B04A
:104B100000AFF860B9603B601346FB712CE0BB69E5
:104B2000B3F1FF3F28D0BB69002B07D0FCF71EFB79
:104B300002463B68D31ABA699A421DD2FB681B68C9
:104B4000DA68FB681B6822F4D072DA60FB681B68C5
:104B50005A69FB681B6822F001025A61FB68202237
:104B600083F83920FB68202283F83A20FB68002272
:104B700083F8382003230FE0FB681B681A68BB68C2
:104B80001340BA689A420CBF01230023DBB21A46D5
:104B9000FB799A42C3D0002318461037BD4680BD2A
:104BA000B0B584B000AF78600023FB607B681B6801
:104BB0001B6923F440517B68DA687B681B680A43F1
:104BC0001A617B689A687B681B691A437B685B691A
:104BD0001343FA681343FB607B681B68DB6823F4AC
:104BE000B05323F00C037A681268F9680B43D36062
:104BF0007B681B685B6923F440717B689A697B68FA
:104C00001B680A435A617B681B686F4A93426BD1E9
:104C1000FFF742FC024613469B0013449A001A44D5
:104C20007B685B689B00B2FBF3F3684AA2FB03233B
:104C30005B091C01FFF730FC024613469B0013443E
:104C40009A001A447B685B689B00B2FBF3F5FFF7A0
:104C500023FC024613469B0013449A001A447B68C7
:104C60005B689B00B2FBF3F3584AA2FB03235B098A
:104C7000642202FB03F3EB1A1B013233534AA2FBFB
:104C800003235B0903F0F0031C44FFF705FC024615
:104C900013469B0013449A001A447B685B689B0090
:104CA000B2FBF3F5FFF7F8FB024613469B001344F3
:104CB0009A001A447B685B689B00B2FBF3F3434A9B
:104CC000A2FB03235B09642202FB03F3EB1A1B0123
:104CD00032333E4AA2FB03235B0903F00F027B68D9
:104CE0001B6822449A606AE0FFF7C2FB0246134643
:104CF0009B0013449A001A447B685B689B00B2FBDC
:104D0000F3F3324AA2FB03235B091C01FFF7B0FB5C
:104D1000024613469B0013449A001A447B685B6862
:104D20009B00B2FBF3F5FFF7A3FB024613469B0083
:104D300013449A001A447B685B689B00B2FBF3F350
:104D4000224AA2FB03235B09642202FB03F3EB1A52
:104D50001B0132331D4AA2FB03235B0903F0F0035E
:104D60001C44FFF785FB024613469B0013449A0040
:104D70001A447B685B689B00B2FBF3F5FFF778FB96
:104D8000024613469B0013449A001A447B685B68F2
:104D90009B00B2FBF3F30D4AA2FB03235B096422E1
:104DA00002FB03F3EB1A1B013233084AA2FB032375
:104DB0005B0903F00F027B681B6822449A6000BF06
:104DC0001037BD46B0BD00BF003801401F85EB5114
:104DD00080B500AFFCF7CAF9034601334FF47A728D
:104DE00002FB03F2064B9B680649A1FB03131B0958
:104DF000D31A054A1360044B1B68184680BD00BFD8
:104E000010E000E0398EE338880200200000000046
:104E10002DE9F04395B006AF8B4B1B6819468B48C4
:104E200002F06EFD7521D02000F0FEFD034687F8EC
:104E30002F3097F82F301946854802F061FD8548DC
:104E400002F05EFD97F82F30712B40F0F28082481F
:104E500002F056FD0120FCF793F901F0AFF87F490D
:104E60007F4801F0ADF97E4B1B681846FBF7D4FA7A
:104E700003460C461A4623467A4802F041FD784B19
:104E80005B681846FBF7C8FA03460C461A462346E9
:104E9000754802F035FD724B9B681846FBF7BCFA6B
:104EA00003460C461A462346704802F029FD6B4B18
:104EB0001B681846FBF7B0FA03460C461A46234611
:104EC0006B4802F01DFD654B5B681846FBF7A4FAC2
:104ED00003460C461A462346664802F011FD5F4B16
:104EE0009B681846FBF798FA03460C461A46234679
:104EF000614802F005FD0220FCF742F901F0EAF8F2
:104F00005E4802F0FDFC5E4801F064F85D4802F086
:104F1000F7FC5D4B1B781A46012393401846FBF7BC
:104F2000B5FE034619461846FBF7FCFD0346184636
:104F3000FBF772FA03460C461A462346534802F022
:104F4000DFFC534B1B781A46012393401846FBF7AE
:104F50009DFE03464F491846FBF7ECFE03461846F4
:104F6000FBF75AFA03460C461A4623464A4802F013
:104F7000C7FC4A4B1B78002B02D1494802F0C0FC09
:104F8000464B1B78012B02D1464802F0B9FC464B38
:104F90001B78022B02D1454802F0B2FC424B1B7831
:104FA000062B02D1424802F0ABFC0220FCF7E8F8E5
:104FB00000F042FF00F00EFF00F0EEFE3D4B1B68DC
:104FC00019464FF07E50FBF769FF03461846FBF782
:104FD00023FA03460C461A462346374802F090FC53
:104FE000364B1B6819464FF07E50FBF757FF0346C0
:104FF0001846FBF711FA03460C461A46234630487A
:1050000002F07EFC2F4B1B6819464FF07E50FBF7D9
:1050100045FF03461846FBF7FFF903460C461A46C0
:105020002346294802F06CFC2849294800F03EFD3F
:1050300054E0284802F064FC97F82F3019462648BF
:1050400002F05EFCFEE700BF28000020ACC00008B4
:10505000CCC00008D8C00008ECC0000858020020EE
:105060004C02002004C1000818C100082CC100082F
:1050700040C1000854C1000868C100087CC1000894
:1050800028020020ACC1000824020020DCC1000876
:105090002502002000007A4308C200080800002012
:1050A00034C200085CC200080900002084C2000865
:1050B000A0C20008DC020020E8C20008E8020020CC
:1050C00014C300080403002040C30008400200206D
:1050D00034020020BCC20008E0C200083A21D020FF
:1050E00000F0A2FC034603F00103002B00F0268130
:1050F000984800F0CFFE974BB3F900301846FBF705
:10510000C5FD0246944B1B6819461046FBF712FE7C
:1051100003461A46914B1B6819461046FBF700FDE3
:1051200003461A468E4B1A608A4BB3F90230184672
:10513000FBF7ACFD0246884B1B6819461046FBF78F
:10514000F9FD03461A46854B5B6819461046FBF786
:10515000E7FC03461A46834B1A607E4BB3F90430D2
:105160001846FBF793FD02467B4B1B681946104619
:10517000FBF7E0FD03461A46784B9B68194610463C
:10518000FBF7CEFC03461A46774B1A60774800F0CF
:10519000ADFE764BB3F900301846FBF777FD0246BB
:1051A000734B1B6819461046FBF7C4FD03461A46AD
:1051B000704B1B6819461046FBF7B2FC03461A46B3
:1051C0006D4B1A60694BB3F902301846FBF75EFD70
:1051D0000246674B1B6819461046FBF7ABFD0346BA
:1051E0001A46644B5B6819461046FBF799FC034668
:1051F0001A46624B1A605D4BB3F904301846FBF750
:1052000045FD02465A4B1B6819461046FBF792FDB6
:1052100003461A46574B9B6819461046FBF780FC1D
:1052200003461A46564B1A60564800F08BFE554B03
:10523000B3F900301846FBF729FD0246524B1B68B4
:1052400019461046FBF776FD03461A464F4B1B687E
:1052500019461046FBF76EFD03461A464C4B1B6879
:1052600019461046FBF75CFC03461A46494B1A6088
:10527000444BB3F902301846FBF708FD0246424B97
:105280001B6819461046FBF755FD03461A463F4B6F
:105290005B6819461046FBF74DFD03461A463C4B2A
:1052A0005B6819461046FBF73BFC03461A463A4B2F
:1052B0001A60344BB3F904301846FBF7E7FC02469A
:1052C000314B1B6819461046FBF734FD03461A465E
:1052D0002E4B9B6819461046FBF72CFD03461A46D9
:1052E0002B4B9B6819461046FBF71AFC03461A46DF
:1052F0002A4B1A602A4B1A68264B1B68194610461F
:10530000FBF718FD03461A46224B1A60244B5A68D5
:10531000214B1B6819461046FBF70CFD03461A4645
:105320001D4B1A601E4B9A681C4B1B681946104691
:10533000FBF700FD03461A46184B1A60FFF748FDBD
:1053400003461A46174B1A60164B1A68164B1B6811
:10535000D31A2BE0A0020020DC020020580200201B
:10536000D80200200C030020C4020020CC02002040
:10537000E80200204C02002008030020C0020020A8
:10538000E4020020F4020020040300202802002090
:105390003402002010030020D4020020EC02002080
:1053A0004002002078020020700200201846FBF71F
:1053B0006DFC034699491846FBF770FD03461A46F3
:1053C000974B1A60974B1B68974A1360974B1A6864
:1053D000934B1B6819461046FBF7A4FB03461A467D
:1053E000924B1A60924B1B680133914A1360914BA8
:1053F0001C68914B1D68914B1E68914B1B6891492D
:105400001846FBF797FC03468F491846FBF746FD05
:10541000034699468D4B1B688A491846FBF78AFC60
:10542000034689491846FBF739FD03469846884BE1
:105430001B6884491846FBF77DFC034682491846E1
:10544000FBF72CFD03461846824B1B68824A126804
:10545000824909680491039202930190CDF800807B
:105460004B4632462946204601F046F9FBF77EFEC0
:1054700002467B4B1B68D31A7A4A1360794B1B6830
:10548000642B7FF62BAE784B5A68774B9B68194696
:105490001046FBF74FFC03461C46734B1A68724BD1
:1054A000DB6819461046FBF745FC034619462046C3
:1054B000FBF738FB034619461846FBF733FB034658
:1054C0001846FAF7A9FF04460D46674B1A68664B63
:1054D0001B6819461046FBF72DFC03461E46624B1F
:1054E0005A68614B5B6819461046FBF723FC03467C
:1054F00019463046FBF716FB03461E465A4B9A6880
:10550000594B9B6819461046FBF714FC0346194695
:105510003046FBF705FB03461E46534BDA68524BF9
:10552000DB6819461046FBF705FC03461946304672
:10553000FBF7F6FA03461846FAF76EFF02460B46EB
:105540002046294602F01AFE03460C46184621461C
:10555000FBF792FA0346BB62434B5A68424BDB6847
:1055600019461046FBF7E6FB03461C463E4B1A68FD
:105570003D4B9B6819461046FBF7DCFB034619467A
:105580002046FBF7CDFA034619461846FBF7CAFA40
:1055900003461846FAF740FF03460C4618462146D4
:1055A00002F09AFD03460C4618462146FBF764FAC2
:1055B000034683F000437B622B4B1A682A4B5B68DF
:1055C00019461046FBF7B6FB03461C46264B9A6865
:1055D000254BDB6819461046FBF7ACFB0346194622
:1055E0002046FBF79FFA034619461846FBF79AFA3E
:1055F00003461846FAF710FF04460D461A4B1A6880
:10560000194B1B6819461046FBF794FB03461E46D0
:10561000154B5A68144B5B6828E000BF002474499E
:105620006C02002078020020700200201C02002082
:1056300020020020D80200200C030020C402002019
:1056400008030020DB0F494000003443C002002063
:10565000E4020020D402002010030020EC0200200D
:10566000680200206402002018000020194610463D
:10567000FBF760FB034619463046FBF751FA034639
:105680001E46BF4B9A68BE4B9B6819461046FBF7F7
:1056900051FB034619463046FBF742FA03461E46C5
:1056A000B74BDA68B64BDB6819461046FBF742FB8E
:1056B000034619463046FBF735FA03461846FAF713
:1056C000ABFE02460B462046294602F057FD034634
:1056D0000C4618462146FBF7CFF903463B62A94B1F
:1056E0001B6883F000431846FAF796FE8046894609
:1056F000A54B1B681846FBF7E3FC0446A24B1B684E
:105700001846FBF7DDFC034603FB04F49F4B1B68C4
:105710001846FBF7D5FC05469C4B1B681846FBF763
:10572000CFFC034603FB05F323441846FAF762FE59
:1057300003460C461846214602F022FD03460C465D
:105740001A4623464046494602F018FDC7E90601BD
:105750008E4B1B681846FAF75FFE804689468A4BD7
:105760001B681846FBF7ACFC0446874B1B681846C1
:10577000FBF7A6FC034603FB04F4824B1B681846A8
:10578000FBF79EFC05467F4B1B681846FBF798FC11
:10579000034603FB05F323441846FAF72BFE0346A2
:1057A0000C461846214602F0EBFC03460C461A460E
:1057B00023464046494602F0E1FCC7E90401744B28
:1057C0001B681846FAF728FE04460D46D7E906017D
:1057D00002F0F2FB02460B4620462946FAF774FE19
:1057E00003460C4625461C466A4B1B681846FAF7CA
:1057F00013FE80468946D7E9040102F025FC0246E3
:105800000B4640464946FAF75FFE02460B46904675
:105810009946D7E9060102F017FC02460B464046BE
:105820004946FAF751FE02460B4620462946FAF74A
:1058300095FC03460C4625461C46574B1B681846EC
:10584000FAF7EAFD80468946D7E9040102F0B4FB85
:1058500002460B4640464946FAF736FE02460B46DC
:1058600090469946D7E9060102F0EEFB02460B4648
:1058700040464946FAF728FE02460B46204629468E
:10588000FAF76CFC03460C46C7E90234414B1B682F
:105890001846FAF7C1FD04460D46D7E9040102F0A7
:1058A0008BFB02460B4620462946FAF70DFE0346BF
:1058B0000C4625461C46384B1B681846FAF7ACFDCB
:1058C00080468946D7E9040102F0BEFB02460B463A
:1058D00040464946FAF7F8FD02460B46204629465F
:1058E000FAF73AFC03460C46C7E90034D7E902232D
:1058F000D7E9000102F042FCC7E90C014FF00002B9
:105900004FF00003D7E90C01FBF750F80346002BDA
:105910000AD019A3D3E90023D7E90C01FAF71EFC3A
:1059200003460C46C7E90C341C49786AFBF702FAB7
:1059300003467B621949B86AFBF7FCF90346BB6270
:105940001749B86AFBF7ECF80346BB621349386A9B
:10595000FBF7F0F903463B62B86AFAF75DFD804653
:105960008946786AFAF758FD05460E46386AFAF70E
:1059700053FD0A46014615E0182D4454FB211940F9
:1059800018000020D8020020C40200200C030020D0
:1059900010030020D4020020EC020020E02E65421B
:1059A000CDCC5C41D7E90C34CDE90434CDE9021209
:1059B000CDE9005642464B46084801F0A1FFFBF7EF
:1059C000D5FB03461A46064B1A60064B4FF0000201
:1059D0001A60054B00221A60FFF780BB68C30008FD
:1059E000680200201C0200202002002080B586B042
:1059F00002AF0346FB710B46BB7113467B71BB794B
:105A00003B737B797B73FB7999B207F10C024FF4FE
:105A10007A73009302230348FBF788FF00BF103717
:105A2000BD4680BD1403002080B588B004AF034696
:105A30000A46FB711346BB71FB7999B2BB799AB2E6
:105A40004FF47A7302930123019307F10C0300933F
:105A500001230448FCF778F83B7B18461037BD4615
:105A600080BD00BF1403002080B586B004AF3B604A
:105A70000346FB710B46BB7113467B71FB7999B2F0
:105A8000BB7998B27B799BB24FF47A720292019300
:105A90003B680093012302460348FCF755F800BF1A
:105AA0000837BD4680BD00BF1403002090B593B0F9
:105AB00000AF786039600023A7F846300023A7F8CC
:105AC000443000233B6300237B630023BB6300233C
:105AD0007B620023BB620023FB62A74A07F11C0321
